{
  "_format": "hh-sol-artifact-1",
  "contractName": "TokenMaster",
  "sourceName": "contracts/TokenMaster.sol",
  "abi": [
    {
      "inputs": [
        {
          "internalType": "string",
          "name": "_name",
          "type": "string"
        },
        {
          "internalType": "string",
          "name": "_symbol",
          "type": "string"
        }
      ],
      "stateMutability": "nonpayable",
      "type": "constructor"
    },
    {
      "anonymous": false,
      "inputs": [
        {
          "indexed": true,
          "internalType": "address",
          "name": "owner",
          "type": "address"
        },
        {
          "indexed": true,
          "internalType": "address",
          "name": "approved",
          "type": "address"
        },
        {
          "indexed": true,
          "internalType": "uint256",
          "name": "tokenId",
          "type": "uint256"
        }
      ],
      "name": "Approval",
      "type": "event"
    },
    {
      "anonymous": false,
      "inputs": [
        {
          "indexed": true,
          "internalType": "address",
          "name": "owner",
          "type": "address"
        },
        {
          "indexed": true,
          "internalType": "address",
          "name": "operator",
          "type": "address"
        },
        {
          "indexed": false,
          "internalType": "bool",
          "name": "approved",
          "type": "bool"
        }
      ],
      "name": "ApprovalForAll",
      "type": "event"
    },
    {
      "anonymous": false,
      "inputs": [
        {
          "indexed": true,
          "internalType": "address",
          "name": "from",
          "type": "address"
        },
        {
          "indexed": true,
          "internalType": "address",
          "name": "to",
          "type": "address"
        },
        {
          "indexed": true,
          "internalType": "uint256",
          "name": "tokenId",
          "type": "uint256"
        }
      ],
      "name": "Transfer",
      "type": "event"
    },
    {
      "inputs": [
        {
          "internalType": "address",
          "name": "to",
          "type": "address"
        },
        {
          "internalType": "uint256",
          "name": "tokenId",
          "type": "uint256"
        }
      ],
      "name": "approve",
      "outputs": [],
      "stateMutability": "nonpayable",
      "type": "function"
    },
    {
      "inputs": [
        {
          "internalType": "address",
          "name": "owner",
          "type": "address"
        }
      ],
      "name": "balanceOf",
      "outputs": [
        {
          "internalType": "uint256",
          "name": "",
          "type": "uint256"
        }
      ],
      "stateMutability": "view",
      "type": "function"
    },
    {
      "inputs": [
        {
          "internalType": "uint256",
          "name": "tokenId",
          "type": "uint256"
        }
      ],
      "name": "getApproved",
      "outputs": [
        {
          "internalType": "address",
          "name": "",
          "type": "address"
        }
      ],
      "stateMutability": "view",
      "type": "function"
    },
    {
      "inputs": [
        {
          "internalType": "uint256",
          "name": "_id",
          "type": "uint256"
        }
      ],
      "name": "getOccasion",
      "outputs": [
        {
          "components": [
            {
              "internalType": "uint256",
              "name": "id",
              "type": "uint256"
            },
            {
              "internalType": "string",
              "name": "name",
              "type": "string"
            },
            {
              "internalType": "uint256",
              "name": "cost",
              "type": "uint256"
            },
            {
              "internalType": "uint256",
              "name": "tickets",
              "type": "uint256"
            },
            {
              "internalType": "uint256",
              "name": "maxTickets",
              "type": "uint256"
            },
            {
              "internalType": "string",
              "name": "date",
              "type": "string"
            },
            {
              "internalType": "string",
              "name": "time",
              "type": "string"
            },
            {
              "internalType": "string",
              "name": "location",
              "type": "string"
            },
            {
              "internalType": "address",
              "name": "owner",
              "type": "address"
            }
          ],
          "internalType": "struct TokenMaster.Occasion",
          "name": "",
          "type": "tuple"
        }
      ],
      "stateMutability": "view",
      "type": "function"
    },
    {
      "inputs": [
        {
          "internalType": "uint256",
          "name": "_id",
          "type": "uint256"
        },
        {
          "internalType": "address",
          "name": "_address",
          "type": "address"
        }
      ],
      "name": "getSeatsBoughtByAddress",
      "outputs": [
        {
          "internalType": "uint256[]",
          "name": "",
          "type": "uint256[]"
        }
      ],
      "stateMutability": "view",
      "type": "function"
    },
    {
      "inputs": [
        {
          "internalType": "uint256",
          "name": "_id",
          "type": "uint256"
        }
      ],
      "name": "getSeatsTaken",
      "outputs": [
        {
          "internalType": "uint256[]",
          "name": "",
          "type": "uint256[]"
        }
      ],
      "stateMutability": "view",
      "type": "function"
    },
    {
      "inputs": [
        {
          "internalType": "uint256",
          "name": "",
          "type": "uint256"
        },
        {
          "internalType": "address",
          "name": "",
          "type": "address"
        }
      ],
      "name": "hasBought",
      "outputs": [
        {
          "internalType": "bool",
          "name": "",
          "type": "bool"
        }
      ],
      "stateMutability": "view",
      "type": "function"
    },
    {
      "inputs": [
        {
          "internalType": "address",
          "name": "owner",
          "type": "address"
        },
        {
          "internalType": "address",
          "name": "operator",
          "type": "address"
        }
      ],
      "name": "isApprovedForAll",
      "outputs": [
        {
          "internalType": "bool",
          "name": "",
          "type": "bool"
        }
      ],
      "stateMutability": "view",
      "type": "function"
    },
    {
      "inputs": [
        {
          "internalType": "string",
          "name": "_name",
          "type": "string"
        },
        {
          "internalType": "uint256",
          "name": "_cost",
          "type": "uint256"
        },
        {
          "internalType": "uint256",
          "name": "_maxTickets",
          "type": "uint256"
        },
        {
          "internalType": "string",
          "name": "_date",
          "type": "string"
        },
        {
          "internalType": "string",
          "name": "_time",
          "type": "string"
        },
        {
          "internalType": "string",
          "name": "_location",
          "type": "string"
        }
      ],
      "name": "list",
      "outputs": [],
      "stateMutability": "nonpayable",
      "type": "function"
    },
    {
      "inputs": [
        {
          "internalType": "uint256",
          "name": "_id",
          "type": "uint256"
        },
        {
          "internalType": "uint256",
          "name": "_seat",
          "type": "uint256"
        }
      ],
      "name": "mint",
      "outputs": [],
      "stateMutability": "payable",
      "type": "function"
    },
    {
      "inputs": [],
      "name": "name",
      "outputs": [
        {
          "internalType": "string",
          "name": "",
          "type": "string"
        }
      ],
      "stateMutability": "view",
      "type": "function"
    },
    {
      "inputs": [],
      "name": "owner",
      "outputs": [
        {
          "internalType": "address",
          "name": "",
          "type": "address"
        }
      ],
      "stateMutability": "view",
      "type": "function"
    },
    {
      "inputs": [
        {
          "internalType": "uint256",
          "name": "tokenId",
          "type": "uint256"
        }
      ],
      "name": "ownerOf",
      "outputs": [
        {
          "internalType": "address",
          "name": "",
          "type": "address"
        }
      ],
      "stateMutability": "view",
      "type": "function"
    },
    {
      "inputs": [
        {
          "internalType": "address",
          "name": "from",
          "type": "address"
        },
        {
          "internalType": "address",
          "name": "to",
          "type": "address"
        },
        {
          "internalType": "uint256",
          "name": "tokenId",
          "type": "uint256"
        }
      ],
      "name": "safeTransferFrom",
      "outputs": [],
      "stateMutability": "nonpayable",
      "type": "function"
    },
    {
      "inputs": [
        {
          "internalType": "address",
          "name": "from",
          "type": "address"
        },
        {
          "internalType": "address",
          "name": "to",
          "type": "address"
        },
        {
          "internalType": "uint256",
          "name": "tokenId",
          "type": "uint256"
        },
        {
          "internalType": "bytes",
          "name": "data",
          "type": "bytes"
        }
      ],
      "name": "safeTransferFrom",
      "outputs": [],
      "stateMutability": "nonpayable",
      "type": "function"
    },
    {
      "inputs": [
        {
          "internalType": "uint256",
          "name": "",
          "type": "uint256"
        },
        {
          "internalType": "uint256",
          "name": "",
          "type": "uint256"
        }
      ],
      "name": "seatTaken",
      "outputs": [
        {
          "internalType": "address",
          "name": "",
          "type": "address"
        }
      ],
      "stateMutability": "view",
      "type": "function"
    },
    {
      "inputs": [
        {
          "internalType": "uint256",
          "name": "",
          "type": "uint256"
        },
        {
          "internalType": "address",
          "name": "",
          "type": "address"
        },
        {
          "internalType": "uint256",
          "name": "",
          "type": "uint256"
        }
      ],
      "name": "seatsBoughtByAddress",
      "outputs": [
        {
          "internalType": "uint256",
          "name": "",
          "type": "uint256"
        }
      ],
      "stateMutability": "view",
      "type": "function"
    },
    {
      "inputs": [
        {
          "internalType": "address",
          "name": "operator",
          "type": "address"
        },
        {
          "internalType": "bool",
          "name": "approved",
          "type": "bool"
        }
      ],
      "name": "setApprovalForAll",
      "outputs": [],
      "stateMutability": "nonpayable",
      "type": "function"
    },
    {
      "inputs": [
        {
          "internalType": "bytes4",
          "name": "interfaceId",
          "type": "bytes4"
        }
      ],
      "name": "supportsInterface",
      "outputs": [
        {
          "internalType": "bool",
          "name": "",
          "type": "bool"
        }
      ],
      "stateMutability": "view",
      "type": "function"
    },
    {
      "inputs": [],
      "name": "symbol",
      "outputs": [
        {
          "internalType": "string",
          "name": "",
          "type": "string"
        }
      ],
      "stateMutability": "view",
      "type": "function"
    },
    {
      "inputs": [
        {
          "internalType": "uint256",
          "name": "tokenId",
          "type": "uint256"
        }
      ],
      "name": "tokenURI",
      "outputs": [
        {
          "internalType": "string",
          "name": "",
          "type": "string"
        }
      ],
      "stateMutability": "view",
      "type": "function"
    },
    {
      "inputs": [],
      "name": "totalOccasions",
      "outputs": [
        {
          "internalType": "uint256",
          "name": "",
          "type": "uint256"
        }
      ],
      "stateMutability": "view",
      "type": "function"
    },
    {
      "inputs": [],
      "name": "totalSupply",
      "outputs": [
        {
          "internalType": "uint256",
          "name": "",
          "type": "uint256"
        }
      ],
      "stateMutability": "view",
      "type": "function"
    },
    {
      "inputs": [
        {
          "internalType": "address",
          "name": "from",
          "type": "address"
        },
        {
          "internalType": "address",
          "name": "to",
          "type": "address"
        },
        {
          "internalType": "uint256",
          "name": "tokenId",
          "type": "uint256"
        }
      ],
      "name": "transferFrom",
      "outputs": [],
      "stateMutability": "nonpayable",
      "type": "function"
    },
    {
      "inputs": [],
      "name": "withdraw",
      "outputs": [],
      "stateMutability": "nonpayable",
      "type": "function"
    }
  ],
  "bytecode": "0x60806040523480156200001157600080fd5b50604051620040d4380380620040d483398181016040528101906200003791906200023b565b818181600090816200004a91906200050b565b5080600190816200005c91906200050b565b50505033600660006101000a81548173ffffffffffffffffffffffffffffffffffffffff021916908373ffffffffffffffffffffffffffffffffffffffff1602179055505050620005f2565b6000604051905090565b600080fd5b600080fd5b600080fd5b600080fd5b6000601f19601f8301169050919050565b7f4e487b7100000000000000000000000000000000000000000000000000000000600052604160045260246000fd5b6200011182620000c6565b810181811067ffffffffffffffff82111715620001335762000132620000d7565b5b80604052505050565b600062000148620000a8565b905062000156828262000106565b919050565b600067ffffffffffffffff821115620001795762000178620000d7565b5b6200018482620000c6565b9050602081019050919050565b60005b83811015620001b157808201518184015260208101905062000194565b60008484015250505050565b6000620001d4620001ce846200015b565b6200013c565b905082815260208101848484011115620001f357620001f2620000c1565b5b6200020084828562000191565b509392505050565b600082601f83011262000220576200021f620000bc565b5b815162000232848260208601620001bd565b91505092915050565b60008060408385031215620002555762000254620000b2565b5b600083015167ffffffffffffffff811115620002765762000275620000b7565b5b620002848582860162000208565b925050602083015167ffffffffffffffff811115620002a857620002a7620000b7565b5b620002b68582860162000208565b9150509250929050565b600081519050919050565b7f4e487b7100000000000000000000000000000000000000000000000000000000600052602260045260246000fd5b600060028204905060018216806200031357607f821691505b602082108103620003295762000328620002cb565b5b50919050565b60008190508160005260206000209050919050565b60006020601f8301049050919050565b600082821b905092915050565b600060088302620003937fffffffffffffffffffffffffffffffffffffffffffffffffffffffffffffffff8262000354565b6200039f868362000354565b95508019841693508086168417925050509392505050565b6000819050919050565b6000819050919050565b6000620003ec620003e6620003e084620003b7565b620003c1565b620003b7565b9050919050565b6000819050919050565b6200040883620003cb565b620004206200041782620003f3565b84845462000361565b825550505050565b600090565b6200043762000428565b62000444818484620003fd565b505050565b5b818110156200046c57620004606000826200042d565b6001810190506200044a565b5050565b601f821115620004bb5762000485816200032f565b620004908462000344565b81016020851015620004a0578190505b620004b8620004af8562000344565b83018262000449565b50505b505050565b600082821c905092915050565b6000620004e060001984600802620004c0565b1980831691505092915050565b6000620004fb8383620004cd565b9150826002028217905092915050565b6200051682620002c0565b67ffffffffffffffff811115620005325762000531620000d7565b5b6200053e8254620002fa565b6200054b82828562000470565b600060209050601f8311600181146200058357600084156200056e578287015190505b6200057a8582620004ed565b865550620005ea565b601f19841662000593866200032f565b60005b82811015620005bd5784890151825560018201915060208501945060208101905062000596565b86831015620005dd5784890151620005d9601f891682620004cd565b8355505b6001600288020188555050505b505050505050565b613ad280620006026000396000f3fe6080604052600436106101665760003560e01c806374bc8656116100d1578063a22cb4651161008a578063c87b56dd11610064578063c87b56dd14610553578063e25c4baf14610590578063e985e9c5146105cd578063f7c3291f1461060a57610166565b8063a22cb465146104c4578063af296da1146104ed578063b88d4fde1461052a57610166565b806374bc8656146103a05780638da5cb5b146103dd578063953865c11461040857806395d89b41146104335780639a382f0f1461045e5780639cb04aef1461048757610166565b80631b2ef1ca116101235780631b2ef1ca146102a157806323b872dd146102bd5780633ccfd60b146102e657806342842e0e146102fd5780636352211e1461032657806370a082311461036357610166565b806301ffc9a71461016b57806306fdde03146101a8578063081812fc146101d3578063095ea7b3146102105780630ef7ec741461023957806318160ddd14610276575b600080fd5b34801561017757600080fd5b50610192600480360381019061018d91906125b9565b610647565b60405161019f9190612601565b60405180910390f35b3480156101b457600080fd5b506101bd610729565b6040516101ca91906126ac565b60405180910390f35b3480156101df57600080fd5b506101fa60048036038101906101f59190612704565b6107bb565b6040516102079190612772565b60405180910390f35b34801561021c57600080fd5b50610237600480360381019061023291906127b9565b610801565b005b34801561024557600080fd5b50610260600480360381019061025b9190612704565b610918565b60405161026d91906128b7565b60405180910390f35b34801561028257600080fd5b5061028b610983565b60405161029891906128e8565b60405180910390f35b6102bb60048036038101906102b69190612903565b610989565b005b3480156102c957600080fd5b506102e460048036038101906102df9190612943565b610c3b565b005b3480156102f257600080fd5b506102fb610c9b565b005b34801561030957600080fd5b50610324600480360381019061031f9190612943565b610d90565b005b34801561033257600080fd5b5061034d60048036038101906103489190612704565b610db0565b60405161035a9190612772565b60405180910390f35b34801561036f57600080fd5b5061038a60048036038101906103859190612996565b610e36565b60405161039791906128e8565b60405180910390f35b3480156103ac57600080fd5b506103c760048036038101906103c29190612704565b610eed565b6040516103d49190612af6565b60405180910390f35b3480156103e957600080fd5b506103f26111e1565b6040516103ff9190612772565b60405180910390f35b34801561041457600080fd5b5061041d611207565b60405161042a91906128e8565b60405180910390f35b34801561043f57600080fd5b5061044861120d565b60405161045591906126ac565b60405180910390f35b34801561046a57600080fd5b5061048560048036038101906104809190612c4d565b61129f565b005b34801561049357600080fd5b506104ae60048036038101906104a99190612d4a565b611451565b6040516104bb9190612601565b60405180910390f35b3480156104d057600080fd5b506104eb60048036038101906104e69190612db6565b611480565b005b3480156104f957600080fd5b50610514600480360381019061050f9190612903565b611496565b6040516105219190612772565b60405180910390f35b34801561053657600080fd5b50610551600480360381019061054c9190612e97565b6114d8565b005b34801561055f57600080fd5b5061057a60048036038101906105759190612704565b61153a565b60405161058791906126ac565b60405180910390f35b34801561059c57600080fd5b506105b760048036038101906105b29190612f1a565b6115a2565b6040516105c491906128e8565b60405180910390f35b3480156105d957600080fd5b506105f460048036038101906105ef9190612f6d565b6115e0565b6040516106019190612601565b60405180910390f35b34801561061657600080fd5b50610631600480360381019061062c9190612d4a565b611674565b60405161063e91906128b7565b60405180910390f35b60007f80ac58cd000000000000000000000000000000000000000000000000000000007bffffffffffffffffffffffffffffffffffffffffffffffffffffffff1916827bffffffffffffffffffffffffffffffffffffffffffffffffffffffff1916148061071257507f5b5e139f000000000000000000000000000000000000000000000000000000007bffffffffffffffffffffffffffffffffffffffffffffffffffffffff1916827bffffffffffffffffffffffffffffffffffffffffffffffffffffffff1916145b8061072257506107218261171d565b5b9050919050565b60606000805461073890612fdc565b80601f016020809104026020016040519081016040528092919081815260200182805461076490612fdc565b80156107b15780601f10610786576101008083540402835291602001916107b1565b820191906000526020600020905b81548152906001019060200180831161079457829003601f168201915b5050505050905090565b60006107c682611787565b6004600083815260200190815260200160002060009054906101000a900473ffffffffffffffffffffffffffffffffffffffff169050919050565b600061080c82610db0565b90508073ffffffffffffffffffffffffffffffffffffffff168373ffffffffffffffffffffffffffffffffffffffff160361087c576040517f08c379a00000000000000000000000000000000000000000000000000000000081526004016108739061307f565b60405180910390fd5b8073ffffffffffffffffffffffffffffffffffffffff1661089b6117d2565b73ffffffffffffffffffffffffffffffffffffffff1614806108ca57506108c9816108c46117d2565b6115e0565b5b610909576040517f08c379a000000000000000000000000000000000000000000000000000000000815260040161090090613111565b60405180910390fd5b61091383836117da565b505050565b6060600d600083815260200190815260200160002080548060200260200160405190810160405280929190818152602001828054801561097757602002820191906000526020600020905b815481526020019060010190808311610963575b50505050509050919050565b60085481565b6000820361099657600080fd5b6007548211156109a557600080fd5b60096000838152602001908152602001600020600201543410156109c857600080fd5b600073ffffffffffffffffffffffffffffffffffffffff16600b6000848152602001908152602001600020600083815260200190815260200160002060009054906101000a900473ffffffffffffffffffffffffffffffffffffffff1673ffffffffffffffffffffffffffffffffffffffff1614610a4557600080fd5b6009600083815260200190815260200160002060040154811115610a6857600080fd5b6001600960008481526020019081526020016000206003016000828254610a8f9190613160565b925050819055506001600a600084815260200190815260200160002060003373ffffffffffffffffffffffffffffffffffffffff1673ffffffffffffffffffffffffffffffffffffffff16815260200190815260200160002060006101000a81548160ff02191690831515021790555033600b6000848152602001908152602001600020600083815260200190815260200160002060006101000a81548173ffffffffffffffffffffffffffffffffffffffff021916908373ffffffffffffffffffffffffffffffffffffffff160217905550600c600083815260200190815260200160002060003373ffffffffffffffffffffffffffffffffffffffff1673ffffffffffffffffffffffffffffffffffffffff168152602001908152602001600020819080600181540180825580915050600190039060005260206000200160009091909190915055600d600083815260200190815260200160002081908060018154018082558091505060019003906000526020600020016000909190919091505560086000815480929190610c2690613194565b9190505550610c3733600854611893565b5050565b610c4c610c466117d2565b826118b1565b610c8b576040517f08c379a0000000000000000000000000000000000000000000000000000000008152600401610c829061324e565b60405180910390fd5b610c96838383611946565b505050565b600660009054906101000a900473ffffffffffffffffffffffffffffffffffffffff1673ffffffffffffffffffffffffffffffffffffffff163373ffffffffffffffffffffffffffffffffffffffff1614610cf557600080fd5b6000600660009054906101000a900473ffffffffffffffffffffffffffffffffffffffff1673ffffffffffffffffffffffffffffffffffffffff1647604051610d3d9061329f565b60006040518083038185875af1925050503d8060008114610d7a576040519150601f19603f3d011682016040523d82523d6000602084013e610d7f565b606091505b5050905080610d8d57600080fd5b50565b610dab838383604051806020016040528060008152506114d8565b505050565b600080610dbc83611c3f565b9050600073ffffffffffffffffffffffffffffffffffffffff168173ffffffffffffffffffffffffffffffffffffffff1603610e2d576040517f08c379a0000000000000000000000000000000000000000000000000000000008152600401610e2490613300565b60405180910390fd5b80915050919050565b60008073ffffffffffffffffffffffffffffffffffffffff168273ffffffffffffffffffffffffffffffffffffffff1603610ea6576040517f08c379a0000000000000000000000000000000000000000000000000000000008152600401610e9d90613392565b60405180910390fd5b600360008373ffffffffffffffffffffffffffffffffffffffff1673ffffffffffffffffffffffffffffffffffffffff168152602001908152602001600020549050919050565b610ef56124eb565b600960008381526020019081526020016000206040518061012001604052908160008201548152602001600182018054610f2e90612fdc565b80601f0160208091040260200160405190810160405280929190818152602001828054610f5a90612fdc565b8015610fa75780601f10610f7c57610100808354040283529160200191610fa7565b820191906000526020600020905b815481529060010190602001808311610f8a57829003601f168201915b50505050508152602001600282015481526020016003820154815260200160048201548152602001600582018054610fde90612fdc565b80601f016020809104026020016040519081016040528092919081815260200182805461100a90612fdc565b80156110575780601f1061102c57610100808354040283529160200191611057565b820191906000526020600020905b81548152906001019060200180831161103a57829003601f168201915b5050505050815260200160068201805461107090612fdc565b80601f016020809104026020016040519081016040528092919081815260200182805461109c90612fdc565b80156110e95780601f106110be576101008083540402835291602001916110e9565b820191906000526020600020905b8154815290600101906020018083116110cc57829003601f168201915b5050505050815260200160078201805461110290612fdc565b80601f016020809104026020016040519081016040528092919081815260200182805461112e90612fdc565b801561117b5780601f106111505761010080835404028352916020019161117b565b820191906000526020600020905b81548152906001019060200180831161115e57829003601f168201915b505050505081526020016008820160009054906101000a900473ffffffffffffffffffffffffffffffffffffffff1673ffffffffffffffffffffffffffffffffffffffff1673ffffffffffffffffffffffffffffffffffffffff16815250509050919050565b600660009054906101000a900473ffffffffffffffffffffffffffffffffffffffff1681565b60075481565b60606001805461121c90612fdc565b80601f016020809104026020016040519081016040528092919081815260200182805461124890612fdc565b80156112955780601f1061126a57610100808354040283529160200191611295565b820191906000526020600020905b81548152906001019060200180831161127857829003601f168201915b5050505050905090565b600660009054906101000a900473ffffffffffffffffffffffffffffffffffffffff1673ffffffffffffffffffffffffffffffffffffffff163373ffffffffffffffffffffffffffffffffffffffff16146112f957600080fd5b6007600081548092919061130c90613194565b919050555060405180610120016040528060075481526020018781526020018681526020018581526020018581526020018481526020018381526020018281526020013373ffffffffffffffffffffffffffffffffffffffff1681525060096000600754815260200190815260200160002060008201518160000155602082015181600101908161139d919061355e565b5060408201518160020155606082015181600301556080820151816004015560a08201518160050190816113d1919061355e565b5060c08201518160060190816113e7919061355e565b5060e08201518160070190816113fd919061355e565b506101008201518160080160006101000a81548173ffffffffffffffffffffffffffffffffffffffff021916908373ffffffffffffffffffffffffffffffffffffffff160217905550905050505050505050565b600a6020528160005260406000206020528060005260406000206000915091509054906101000a900460ff1681565b61149261148b6117d2565b8383611c7c565b5050565b600b6020528160005260406000206020528060005260406000206000915091509054906101000a900473ffffffffffffffffffffffffffffffffffffffff1681565b6114e96114e36117d2565b836118b1565b611528576040517f08c379a000000000000000000000000000000000000000000000000000000000815260040161151f9061324e565b60405180910390fd5b61153484848484611de8565b50505050565b606061154582611787565b600061154f611e44565b9050600081511161156f576040518060200160405280600081525061159a565b8061157984611e5b565b60405160200161158a92919061366c565b6040516020818303038152906040525b915050919050565b600c60205282600052604060002060205281600052604060002081815481106115ca57600080fd5b9060005260206000200160009250925050505481565b6000600560008473ffffffffffffffffffffffffffffffffffffffff1673ffffffffffffffffffffffffffffffffffffffff16815260200190815260200160002060008373ffffffffffffffffffffffffffffffffffffffff1673ffffffffffffffffffffffffffffffffffffffff16815260200190815260200160002060009054906101000a900460ff16905092915050565b6060600c600084815260200190815260200160002060008373ffffffffffffffffffffffffffffffffffffffff1673ffffffffffffffffffffffffffffffffffffffff16815260200190815260200160002080548060200260200160405190810160405280929190818152602001828054801561171057602002820191906000526020600020905b8154815260200190600101908083116116fc575b5050505050905092915050565b60007f01ffc9a7000000000000000000000000000000000000000000000000000000007bffffffffffffffffffffffffffffffffffffffffffffffffffffffff1916827bffffffffffffffffffffffffffffffffffffffffffffffffffffffff1916149050919050565b61179081611f29565b6117cf576040517f08c379a00000000000000000000000000000000000000000000000000000000081526004016117c690613300565b60405180910390fd5b50565b600033905090565b816004600083815260200190815260200160002060006101000a81548173ffffffffffffffffffffffffffffffffffffffff021916908373ffffffffffffffffffffffffffffffffffffffff160217905550808273ffffffffffffffffffffffffffffffffffffffff1661184d83610db0565b73ffffffffffffffffffffffffffffffffffffffff167f8c5be1e5ebec7d5bd14f71427d1e84f3dd0314c0f7b2291e5b200ac8c7c3b92560405160405180910390a45050565b6118ad828260405180602001604052806000815250611f6a565b5050565b6000806118bd83610db0565b90508073ffffffffffffffffffffffffffffffffffffffff168473ffffffffffffffffffffffffffffffffffffffff1614806118ff57506118fe81856115e0565b5b8061193d57508373ffffffffffffffffffffffffffffffffffffffff16611925846107bb565b73ffffffffffffffffffffffffffffffffffffffff16145b91505092915050565b8273ffffffffffffffffffffffffffffffffffffffff1661196682610db0565b73ffffffffffffffffffffffffffffffffffffffff16146119bc576040517f08c379a00000000000000000000000000000000000000000000000000000000081526004016119b390613702565b60405180910390fd5b600073ffffffffffffffffffffffffffffffffffffffff168273ffffffffffffffffffffffffffffffffffffffff1603611a2b576040517f08c379a0000000000000000000000000000000000000000000000000000000008152600401611a2290613794565b60405180910390fd5b611a388383836001611fc5565b8273ffffffffffffffffffffffffffffffffffffffff16611a5882610db0565b73ffffffffffffffffffffffffffffffffffffffff1614611aae576040517f08c379a0000000000000000000000000000000000000000000000000000000008152600401611aa590613702565b60405180910390fd5b6004600082815260200190815260200160002060006101000a81549073ffffffffffffffffffffffffffffffffffffffff02191690556001600360008573ffffffffffffffffffffffffffffffffffffffff1673ffffffffffffffffffffffffffffffffffffffff168152602001908152602001600020600082825403925050819055506001600360008473ffffffffffffffffffffffffffffffffffffffff1673ffffffffffffffffffffffffffffffffffffffff16815260200190815260200160002060008282540192505081905550816002600083815260200190815260200160002060006101000a81548173ffffffffffffffffffffffffffffffffffffffff021916908373ffffffffffffffffffffffffffffffffffffffff160217905550808273ffffffffffffffffffffffffffffffffffffffff168473ffffffffffffffffffffffffffffffffffffffff167fddf252ad1be2c89b69c2b068fc378daa952ba7f163c4a11628f55a4df523b3ef60405160405180910390a4611c3a8383836001611fcb565b505050565b60006002600083815260200190815260200160002060009054906101000a900473ffffffffffffffffffffffffffffffffffffffff169050919050565b8173ffffffffffffffffffffffffffffffffffffffff168373ffffffffffffffffffffffffffffffffffffffff1603611cea576040517f08c379a0000000000000000000000000000000000000000000000000000000008152600401611ce190613800565b60405180910390fd5b80600560008573ffffffffffffffffffffffffffffffffffffffff1673ffffffffffffffffffffffffffffffffffffffff16815260200190815260200160002060008473ffffffffffffffffffffffffffffffffffffffff1673ffffffffffffffffffffffffffffffffffffffff16815260200190815260200160002060006101000a81548160ff0219169083151502179055508173ffffffffffffffffffffffffffffffffffffffff168373ffffffffffffffffffffffffffffffffffffffff167f17307eab39ab6107e8899845ad3d59bd9653f200f220920489ca2b5937696c3183604051611ddb9190612601565b60405180910390a3505050565b611df3848484611946565b611dff84848484611fd1565b611e3e576040517f08c379a0000000000000000000000000000000000000000000000000000000008152600401611e3590613892565b60405180910390fd5b50505050565b606060405180602001604052806000815250905090565b606060006001611e6a84612158565b01905060008167ffffffffffffffff811115611e8957611e88612b22565b5b6040519080825280601f01601f191660200182016040528015611ebb5781602001600182028036833780820191505090505b509050600082602001820190505b600115611f1e578080600190039150507f3031323334353637383961626364656600000000000000000000000000000000600a86061a8153600a8581611f1257611f116138b2565b5b04945060008503611ec9575b819350505050919050565b60008073ffffffffffffffffffffffffffffffffffffffff16611f4b83611c3f565b73ffffffffffffffffffffffffffffffffffffffff1614159050919050565b611f7483836122ab565b611f816000848484611fd1565b611fc0576040517f08c379a0000000000000000000000000000000000000000000000000000000008152600401611fb790613892565b60405180910390fd5b505050565b50505050565b50505050565b6000611ff28473ffffffffffffffffffffffffffffffffffffffff166124c8565b1561214b578373ffffffffffffffffffffffffffffffffffffffff1663150b7a0261201b6117d2565b8786866040518563ffffffff1660e01b815260040161203d9493929190613936565b6020604051808303816000875af192505050801561207957506040513d601f19601f820116820180604052508101906120769190613997565b60015b6120fb573d80600081146120a9576040519150601f19603f3d011682016040523d82523d6000602084013e6120ae565b606091505b5060008151036120f3576040517f08c379a00000000000000000000000000000000000000000000000000000000081526004016120ea90613892565b60405180910390fd5b805181602001fd5b63150b7a0260e01b7bffffffffffffffffffffffffffffffffffffffffffffffffffffffff1916817bffffffffffffffffffffffffffffffffffffffffffffffffffffffff191614915050612150565b600190505b949350505050565b600080600090507a184f03e93ff9f4daa797ed6e38ed64bf6a1f01000000000000000083106121b6577a184f03e93ff9f4daa797ed6e38ed64bf6a1f01000000000000000083816121ac576121ab6138b2565b5b0492506040810190505b6d04ee2d6d415b85acef810000000083106121f3576d04ee2d6d415b85acef810000000083816121e9576121e86138b2565b5b0492506020810190505b662386f26fc10000831061222257662386f26fc100008381612218576122176138b2565b5b0492506010810190505b6305f5e100831061224b576305f5e1008381612241576122406138b2565b5b0492506008810190505b6127108310612270576127108381612266576122656138b2565b5b0492506004810190505b606483106122935760648381612289576122886138b2565b5b0492506002810190505b600a83106122a2576001810190505b80915050919050565b600073ffffffffffffffffffffffffffffffffffffffff168273ffffffffffffffffffffffffffffffffffffffff160361231a576040517f08c379a000000000000000000000000000000000000000000000000000000000815260040161231190613a10565b60405180910390fd5b61232381611f29565b15612363576040517f08c379a000000000000000000000000000000000000000000000000000000000815260040161235a90613a7c565b60405180910390fd5b612371600083836001611fc5565b61237a81611f29565b156123ba576040517f08c379a00000000000000000000000000000000000000000000000000000000081526004016123b190613a7c565b60405180910390fd5b6001600360008473ffffffffffffffffffffffffffffffffffffffff1673ffffffffffffffffffffffffffffffffffffffff16815260200190815260200160002060008282540192505081905550816002600083815260200190815260200160002060006101000a81548173ffffffffffffffffffffffffffffffffffffffff021916908373ffffffffffffffffffffffffffffffffffffffff160217905550808273ffffffffffffffffffffffffffffffffffffffff16600073ffffffffffffffffffffffffffffffffffffffff167fddf252ad1be2c89b69c2b068fc378daa952ba7f163c4a11628f55a4df523b3ef60405160405180910390a46124c4600083836001611fcb565b5050565b6000808273ffffffffffffffffffffffffffffffffffffffff163b119050919050565b6040518061012001604052806000815260200160608152602001600081526020016000815260200160008152602001606081526020016060815260200160608152602001600073ffffffffffffffffffffffffffffffffffffffff1681525090565b6000604051905090565b600080fd5b600080fd5b60007fffffffff0000000000000000000000000000000000000000000000000000000082169050919050565b61259681612561565b81146125a157600080fd5b50565b6000813590506125b38161258d565b92915050565b6000602082840312156125cf576125ce612557565b5b60006125dd848285016125a4565b91505092915050565b60008115159050919050565b6125fb816125e6565b82525050565b600060208201905061261660008301846125f2565b92915050565b600081519050919050565b600082825260208201905092915050565b60005b8381101561265657808201518184015260208101905061263b565b60008484015250505050565b6000601f19601f8301169050919050565b600061267e8261261c565b6126888185612627565b9350612698818560208601612638565b6126a181612662565b840191505092915050565b600060208201905081810360008301526126c68184612673565b905092915050565b6000819050919050565b6126e1816126ce565b81146126ec57600080fd5b50565b6000813590506126fe816126d8565b92915050565b60006020828403121561271a57612719612557565b5b6000612728848285016126ef565b91505092915050565b600073ffffffffffffffffffffffffffffffffffffffff82169050919050565b600061275c82612731565b9050919050565b61276c81612751565b82525050565b60006020820190506127876000830184612763565b92915050565b61279681612751565b81146127a157600080fd5b50565b6000813590506127b38161278d565b92915050565b600080604083850312156127d0576127cf612557565b5b60006127de858286016127a4565b92505060206127ef858286016126ef565b9150509250929050565b600081519050919050565b600082825260208201905092915050565b6000819050602082019050919050565b61282e816126ce565b82525050565b60006128408383612825565b60208301905092915050565b6000602082019050919050565b6000612864826127f9565b61286e8185612804565b935061287983612815565b8060005b838110156128aa5781516128918882612834565b975061289c8361284c565b92505060018101905061287d565b5085935050505092915050565b600060208201905081810360008301526128d18184612859565b905092915050565b6128e2816126ce565b82525050565b60006020820190506128fd60008301846128d9565b92915050565b6000806040838503121561291a57612919612557565b5b6000612928858286016126ef565b9250506020612939858286016126ef565b9150509250929050565b60008060006060848603121561295c5761295b612557565b5b600061296a868287016127a4565b935050602061297b868287016127a4565b925050604061298c868287016126ef565b9150509250925092565b6000602082840312156129ac576129ab612557565b5b60006129ba848285016127a4565b91505092915050565b600082825260208201905092915050565b60006129df8261261c565b6129e981856129c3565b93506129f9818560208601612638565b612a0281612662565b840191505092915050565b612a1681612751565b82525050565b600061012083016000830151612a356000860182612825565b5060208301518482036020860152612a4d82826129d4565b9150506040830151612a626040860182612825565b506060830151612a756060860182612825565b506080830151612a886080860182612825565b5060a083015184820360a0860152612aa082826129d4565b91505060c083015184820360c0860152612aba82826129d4565b91505060e083015184820360e0860152612ad482826129d4565b915050610100830151612aeb610100860182612a0d565b508091505092915050565b60006020820190508181036000830152612b108184612a1c565b905092915050565b600080fd5b600080fd5b7f4e487b7100000000000000000000000000000000000000000000000000000000600052604160045260246000fd5b612b5a82612662565b810181811067ffffffffffffffff82111715612b7957612b78612b22565b5b80604052505050565b6000612b8c61254d565b9050612b988282612b51565b919050565b600067ffffffffffffffff821115612bb857612bb7612b22565b5b612bc182612662565b9050602081019050919050565b82818337600083830152505050565b6000612bf0612beb84612b9d565b612b82565b905082815260208101848484011115612c0c57612c0b612b1d565b5b612c17848285612bce565b509392505050565b600082601f830112612c3457612c33612b18565b5b8135612c44848260208601612bdd565b91505092915050565b60008060008060008060c08789031215612c6a57612c69612557565b5b600087013567ffffffffffffffff811115612c8857612c8761255c565b5b612c9489828a01612c1f565b9650506020612ca589828a016126ef565b9550506040612cb689828a016126ef565b945050606087013567ffffffffffffffff811115612cd757612cd661255c565b5b612ce389828a01612c1f565b935050608087013567ffffffffffffffff811115612d0457612d0361255c565b5b612d1089828a01612c1f565b92505060a087013567ffffffffffffffff811115612d3157612d3061255c565b5b612d3d89828a01612c1f565b9150509295509295509295565b60008060408385031215612d6157612d60612557565b5b6000612d6f858286016126ef565b9250506020612d80858286016127a4565b9150509250929050565b612d93816125e6565b8114612d9e57600080fd5b50565b600081359050612db081612d8a565b92915050565b60008060408385031215612dcd57612dcc612557565b5b6000612ddb858286016127a4565b9250506020612dec85828601612da1565b9150509250929050565b600067ffffffffffffffff821115612e1157612e10612b22565b5b612e1a82612662565b9050602081019050919050565b6000612e3a612e3584612df6565b612b82565b905082815260208101848484011115612e5657612e55612b1d565b5b612e61848285612bce565b509392505050565b600082601f830112612e7e57612e7d612b18565b5b8135612e8e848260208601612e27565b91505092915050565b60008060008060808587031215612eb157612eb0612557565b5b6000612ebf878288016127a4565b9450506020612ed0878288016127a4565b9350506040612ee1878288016126ef565b925050606085013567ffffffffffffffff811115612f0257612f0161255c565b5b612f0e87828801612e69565b91505092959194509250565b600080600060608486031215612f3357612f32612557565b5b6000612f41868287016126ef565b9350506020612f52868287016127a4565b9250506040612f63868287016126ef565b9150509250925092565b60008060408385031215612f8457612f83612557565b5b6000612f92858286016127a4565b9250506020612fa3858286016127a4565b9150509250929050565b7f4e487b7100000000000000000000000000000000000000000000000000000000600052602260045260246000fd5b60006002820490506001821680612ff457607f821691505b60208210810361300757613006612fad565b5b50919050565b7f4552433732313a20617070726f76616c20746f2063757272656e74206f776e6560008201527f7200000000000000000000000000000000000000000000000000000000000000602082015250565b6000613069602183612627565b91506130748261300d565b604082019050919050565b600060208201905081810360008301526130988161305c565b9050919050565b7f4552433732313a20617070726f76652063616c6c6572206973206e6f7420746f60008201527f6b656e206f776e6572206f7220617070726f76656420666f7220616c6c000000602082015250565b60006130fb603d83612627565b91506131068261309f565b604082019050919050565b6000602082019050818103600083015261312a816130ee565b9050919050565b7f4e487b7100000000000000000000000000000000000000000000000000000000600052601160045260246000fd5b600061316b826126ce565b9150613176836126ce565b925082820390508181111561318e5761318d613131565b5b92915050565b600061319f826126ce565b91507fffffffffffffffffffffffffffffffffffffffffffffffffffffffffffffffff82036131d1576131d0613131565b5b600182019050919050565b7f4552433732313a2063616c6c6572206973206e6f7420746f6b656e206f776e6560008201527f72206f7220617070726f76656400000000000000000000000000000000000000602082015250565b6000613238602d83612627565b9150613243826131dc565b604082019050919050565b600060208201905081810360008301526132678161322b565b9050919050565b600081905092915050565b50565b600061328960008361326e565b915061329482613279565b600082019050919050565b60006132aa8261327c565b9150819050919050565b7f4552433732313a20696e76616c696420746f6b656e2049440000000000000000600082015250565b60006132ea601883612627565b91506132f5826132b4565b602082019050919050565b60006020820190508181036000830152613319816132dd565b9050919050565b7f4552433732313a2061646472657373207a65726f206973206e6f74206120766160008201527f6c6964206f776e65720000000000000000000000000000000000000000000000602082015250565b600061337c602983612627565b915061338782613320565b604082019050919050565b600060208201905081810360008301526133ab8161336f565b9050919050565b60008190508160005260206000209050919050565b60006020601f8301049050919050565b600082821b905092915050565b6000600883026134147fffffffffffffffffffffffffffffffffffffffffffffffffffffffffffffffff826133d7565b61341e86836133d7565b95508019841693508086168417925050509392505050565b6000819050919050565b600061345b613456613451846126ce565b613436565b6126ce565b9050919050565b6000819050919050565b61347583613440565b61348961348182613462565b8484546133e4565b825550505050565b600090565b61349e613491565b6134a981848461346c565b505050565b5b818110156134cd576134c2600082613496565b6001810190506134af565b5050565b601f821115613512576134e3816133b2565b6134ec846133c7565b810160208510156134fb578190505b61350f613507856133c7565b8301826134ae565b50505b505050565b600082821c905092915050565b600061353560001984600802613517565b1980831691505092915050565b600061354e8383613524565b9150826002028217905092915050565b6135678261261c565b67ffffffffffffffff8111156135805761357f612b22565b5b61358a8254612fdc565b6135958282856134d1565b600060209050601f8311600181146135c857600084156135b6578287015190505b6135c08582613542565b865550613628565b601f1984166135d6866133b2565b60005b828110156135fe578489015182556001820191506020850194506020810190506135d9565b8683101561361b5784890151613617601f891682613524565b8355505b6001600288020188555050505b505050505050565b600081905092915050565b60006136468261261c565b6136508185613630565b9350613660818560208601612638565b80840191505092915050565b6000613678828561363b565b9150613684828461363b565b91508190509392505050565b7f4552433732313a207472616e736665722066726f6d20696e636f72726563742060008201527f6f776e6572000000000000000000000000000000000000000000000000000000602082015250565b60006136ec602583612627565b91506136f782613690565b604082019050919050565b6000602082019050818103600083015261371b816136df565b9050919050565b7f4552433732313a207472616e7366657220746f20746865207a65726f2061646460008201527f7265737300000000000000000000000000000000000000000000000000000000602082015250565b600061377e602483612627565b915061378982613722565b604082019050919050565b600060208201905081810360008301526137ad81613771565b9050919050565b7f4552433732313a20617070726f766520746f2063616c6c657200000000000000600082015250565b60006137ea601983612627565b91506137f5826137b4565b602082019050919050565b60006020820190508181036000830152613819816137dd565b9050919050565b7f4552433732313a207472616e7366657220746f206e6f6e20455243373231526560008201527f63656976657220696d706c656d656e7465720000000000000000000000000000602082015250565b600061387c603283612627565b915061388782613820565b604082019050919050565b600060208201905081810360008301526138ab8161386f565b9050919050565b7f4e487b7100000000000000000000000000000000000000000000000000000000600052601260045260246000fd5b600081519050919050565b600082825260208201905092915050565b6000613908826138e1565b61391281856138ec565b9350613922818560208601612638565b61392b81612662565b840191505092915050565b600060808201905061394b6000830187612763565b6139586020830186612763565b61396560408301856128d9565b818103606083015261397781846138fd565b905095945050505050565b6000815190506139918161258d565b92915050565b6000602082840312156139ad576139ac612557565b5b60006139bb84828501613982565b91505092915050565b7f4552433732313a206d696e7420746f20746865207a65726f2061646472657373600082015250565b60006139fa602083612627565b9150613a05826139c4565b602082019050919050565b60006020820190508181036000830152613a29816139ed565b9050919050565b7f4552433732313a20746f6b656e20616c7265616479206d696e74656400000000600082015250565b6000613a66601c83612627565b9150613a7182613a30565b602082019050919050565b60006020820190508181036000830152613a9581613a59565b905091905056fea2646970667358221220a988a02cdbe00234a112bea254af2c3c704d014630050c670adc65b928921f6d64736f6c63430008110033",
  "linkReferences": {},
  "deployedLinkReferences": {}
}