{
  "_format": "hh-sol-artifact-1",
  "contractName": "TokenMaster",
  "sourceName": "contracts/TokenMaster.sol",
  "abi": [
    {
      "inputs": [
        {
          "internalType": "string",
          "name": "_name",
          "type": "string"
        },
        {
          "internalType": "string",
          "name": "_symbol",
          "type": "string"
        }
      ],
      "stateMutability": "nonpayable",
      "type": "constructor"
    },
    {
      "anonymous": false,
      "inputs": [
        {
          "indexed": true,
          "internalType": "address",
          "name": "owner",
          "type": "address"
        },
        {
          "indexed": true,
          "internalType": "address",
          "name": "approved",
          "type": "address"
        },
        {
          "indexed": true,
          "internalType": "uint256",
          "name": "tokenId",
          "type": "uint256"
        }
      ],
      "name": "Approval",
      "type": "event"
    },
    {
      "anonymous": false,
      "inputs": [
        {
          "indexed": true,
          "internalType": "address",
          "name": "owner",
          "type": "address"
        },
        {
          "indexed": true,
          "internalType": "address",
          "name": "operator",
          "type": "address"
        },
        {
          "indexed": false,
          "internalType": "bool",
          "name": "approved",
          "type": "bool"
        }
      ],
      "name": "ApprovalForAll",
      "type": "event"
    },
    {
      "anonymous": false,
      "inputs": [
        {
          "indexed": true,
          "internalType": "address",
          "name": "from",
          "type": "address"
        },
        {
          "indexed": true,
          "internalType": "address",
          "name": "to",
          "type": "address"
        },
        {
          "indexed": true,
          "internalType": "uint256",
          "name": "tokenId",
          "type": "uint256"
        }
      ],
      "name": "Transfer",
      "type": "event"
    },
    {
      "inputs": [
        {
          "internalType": "address",
          "name": "to",
          "type": "address"
        },
        {
          "internalType": "uint256",
          "name": "tokenId",
          "type": "uint256"
        }
      ],
      "name": "approve",
      "outputs": [],
      "stateMutability": "nonpayable",
      "type": "function"
    },
    {
      "inputs": [
        {
          "internalType": "address",
          "name": "owner",
          "type": "address"
        }
      ],
      "name": "balanceOf",
      "outputs": [
        {
          "internalType": "uint256",
          "name": "",
          "type": "uint256"
        }
      ],
      "stateMutability": "view",
      "type": "function"
    },
    {
      "inputs": [
        {
          "internalType": "uint256",
          "name": "tokenId",
          "type": "uint256"
        }
      ],
      "name": "getApproved",
      "outputs": [
        {
          "internalType": "address",
          "name": "",
          "type": "address"
        }
      ],
      "stateMutability": "view",
      "type": "function"
    },
    {
      "inputs": [
        {
          "internalType": "uint256",
          "name": "_id",
          "type": "uint256"
        }
      ],
      "name": "getOccasion",
      "outputs": [
        {
          "components": [
            {
              "internalType": "uint256",
              "name": "id",
              "type": "uint256"
            },
            {
              "internalType": "string",
              "name": "name",
              "type": "string"
            },
            {
              "internalType": "uint256",
              "name": "cost",
              "type": "uint256"
            },
            {
              "internalType": "uint256",
              "name": "tickets",
              "type": "uint256"
            },
            {
              "internalType": "uint256",
              "name": "maxTickets",
              "type": "uint256"
            },
            {
              "internalType": "string",
              "name": "date",
              "type": "string"
            },
            {
              "internalType": "string",
              "name": "time",
              "type": "string"
            },
            {
              "internalType": "string",
              "name": "location",
              "type": "string"
            },
            {
              "internalType": "address",
              "name": "owner",
              "type": "address"
            }
          ],
          "internalType": "struct TokenMaster.Occasion",
          "name": "",
          "type": "tuple"
        }
      ],
      "stateMutability": "view",
      "type": "function"
    },
    {
      "inputs": [
        {
          "internalType": "uint256",
          "name": "_id",
          "type": "uint256"
        }
      ],
      "name": "getSeatsBoughtByAddress",
      "outputs": [
        {
          "internalType": "uint256[]",
          "name": "",
          "type": "uint256[]"
        }
      ],
      "stateMutability": "view",
      "type": "function"
    },
    {
      "inputs": [
        {
          "internalType": "uint256",
          "name": "_id",
          "type": "uint256"
        }
      ],
      "name": "getSeatsTaken",
      "outputs": [
        {
          "internalType": "uint256[]",
          "name": "",
          "type": "uint256[]"
        }
      ],
      "stateMutability": "view",
      "type": "function"
    },
    {
      "inputs": [
        {
          "internalType": "uint256",
          "name": "",
          "type": "uint256"
        },
        {
          "internalType": "address",
          "name": "",
          "type": "address"
        }
      ],
      "name": "hasBought",
      "outputs": [
        {
          "internalType": "bool",
          "name": "",
          "type": "bool"
        }
      ],
      "stateMutability": "view",
      "type": "function"
    },
    {
      "inputs": [
        {
          "internalType": "address",
          "name": "owner",
          "type": "address"
        },
        {
          "internalType": "address",
          "name": "operator",
          "type": "address"
        }
      ],
      "name": "isApprovedForAll",
      "outputs": [
        {
          "internalType": "bool",
          "name": "",
          "type": "bool"
        }
      ],
      "stateMutability": "view",
      "type": "function"
    },
    {
      "inputs": [
        {
          "internalType": "uint256",
          "name": "_id",
          "type": "uint256"
        },
        {
          "internalType": "uint256",
          "name": "_seat",
          "type": "uint256"
        }
      ],
      "name": "isTicketValid",
      "outputs": [
        {
          "internalType": "bool",
          "name": "",
          "type": "bool"
        }
      ],
      "stateMutability": "view",
      "type": "function"
    },
    {
      "inputs": [
        {
          "internalType": "string",
          "name": "_name",
          "type": "string"
        },
        {
          "internalType": "uint256",
          "name": "_cost",
          "type": "uint256"
        },
        {
          "internalType": "uint256",
          "name": "_maxTickets",
          "type": "uint256"
        },
        {
          "internalType": "string",
          "name": "_date",
          "type": "string"
        },
        {
          "internalType": "string",
          "name": "_time",
          "type": "string"
        },
        {
          "internalType": "string",
          "name": "_location",
          "type": "string"
        }
      ],
      "name": "list",
      "outputs": [],
      "stateMutability": "nonpayable",
      "type": "function"
    },
    {
      "inputs": [
        {
          "internalType": "uint256",
          "name": "_id",
          "type": "uint256"
        },
        {
          "internalType": "uint256",
          "name": "_seat",
          "type": "uint256"
        }
      ],
      "name": "mint",
      "outputs": [],
      "stateMutability": "payable",
      "type": "function"
    },
    {
      "inputs": [],
      "name": "name",
      "outputs": [
        {
          "internalType": "string",
          "name": "",
          "type": "string"
        }
      ],
      "stateMutability": "view",
      "type": "function"
    },
    {
      "inputs": [],
      "name": "owner",
      "outputs": [
        {
          "internalType": "address",
          "name": "",
          "type": "address"
        }
      ],
      "stateMutability": "view",
      "type": "function"
    },
    {
      "inputs": [
        {
          "internalType": "uint256",
          "name": "tokenId",
          "type": "uint256"
        }
      ],
      "name": "ownerOf",
      "outputs": [
        {
          "internalType": "address",
          "name": "",
          "type": "address"
        }
      ],
      "stateMutability": "view",
      "type": "function"
    },
    {
      "inputs": [
        {
          "internalType": "address",
          "name": "from",
          "type": "address"
        },
        {
          "internalType": "address",
          "name": "to",
          "type": "address"
        },
        {
          "internalType": "uint256",
          "name": "tokenId",
          "type": "uint256"
        }
      ],
      "name": "safeTransferFrom",
      "outputs": [],
      "stateMutability": "nonpayable",
      "type": "function"
    },
    {
      "inputs": [
        {
          "internalType": "address",
          "name": "from",
          "type": "address"
        },
        {
          "internalType": "address",
          "name": "to",
          "type": "address"
        },
        {
          "internalType": "uint256",
          "name": "tokenId",
          "type": "uint256"
        },
        {
          "internalType": "bytes",
          "name": "data",
          "type": "bytes"
        }
      ],
      "name": "safeTransferFrom",
      "outputs": [],
      "stateMutability": "nonpayable",
      "type": "function"
    },
    {
      "inputs": [
        {
          "internalType": "uint256",
          "name": "",
          "type": "uint256"
        },
        {
          "internalType": "uint256",
          "name": "",
          "type": "uint256"
        }
      ],
      "name": "seatTaken",
      "outputs": [
        {
          "internalType": "address",
          "name": "",
          "type": "address"
        }
      ],
      "stateMutability": "view",
      "type": "function"
    },
    {
      "inputs": [
        {
          "internalType": "uint256",
          "name": "",
          "type": "uint256"
        },
        {
          "internalType": "address",
          "name": "",
          "type": "address"
        },
        {
          "internalType": "uint256",
          "name": "",
          "type": "uint256"
        }
      ],
      "name": "seatsBoughtByAddress",
      "outputs": [
        {
          "internalType": "uint256",
          "name": "",
          "type": "uint256"
        }
      ],
      "stateMutability": "view",
      "type": "function"
    },
    {
      "inputs": [
        {
          "internalType": "address",
          "name": "operator",
          "type": "address"
        },
        {
          "internalType": "bool",
          "name": "approved",
          "type": "bool"
        }
      ],
      "name": "setApprovalForAll",
      "outputs": [],
      "stateMutability": "nonpayable",
      "type": "function"
    },
    {
      "inputs": [
        {
          "internalType": "bytes4",
          "name": "interfaceId",
          "type": "bytes4"
        }
      ],
      "name": "supportsInterface",
      "outputs": [
        {
          "internalType": "bool",
          "name": "",
          "type": "bool"
        }
      ],
      "stateMutability": "view",
      "type": "function"
    },
    {
      "inputs": [],
      "name": "symbol",
      "outputs": [
        {
          "internalType": "string",
          "name": "",
          "type": "string"
        }
      ],
      "stateMutability": "view",
      "type": "function"
    },
    {
      "inputs": [
        {
          "internalType": "uint256",
          "name": "tokenId",
          "type": "uint256"
        }
      ],
      "name": "tokenURI",
      "outputs": [
        {
          "internalType": "string",
          "name": "",
          "type": "string"
        }
      ],
      "stateMutability": "view",
      "type": "function"
    },
    {
      "inputs": [],
      "name": "totalOccasions",
      "outputs": [
        {
          "internalType": "uint256",
          "name": "",
          "type": "uint256"
        }
      ],
      "stateMutability": "view",
      "type": "function"
    },
    {
      "inputs": [],
      "name": "totalSupply",
      "outputs": [
        {
          "internalType": "uint256",
          "name": "",
          "type": "uint256"
        }
      ],
      "stateMutability": "view",
      "type": "function"
    },
    {
      "inputs": [
        {
          "internalType": "address",
          "name": "from",
          "type": "address"
        },
        {
          "internalType": "address",
          "name": "to",
          "type": "address"
        },
        {
          "internalType": "uint256",
          "name": "tokenId",
          "type": "uint256"
        }
      ],
      "name": "transferFrom",
      "outputs": [],
      "stateMutability": "nonpayable",
      "type": "function"
    },
    {
      "inputs": [],
      "name": "withdraw",
      "outputs": [],
      "stateMutability": "nonpayable",
      "type": "function"
    }
  ],
  "bytecode": "0x60806040523480156200001157600080fd5b50604051620041a8380380620041a883398181016040528101906200003791906200023b565b818181600090816200004a91906200050b565b5080600190816200005c91906200050b565b50505033600660006101000a81548173ffffffffffffffffffffffffffffffffffffffff021916908373ffffffffffffffffffffffffffffffffffffffff1602179055505050620005f2565b6000604051905090565b600080fd5b600080fd5b600080fd5b600080fd5b6000601f19601f8301169050919050565b7f4e487b7100000000000000000000000000000000000000000000000000000000600052604160045260246000fd5b6200011182620000c6565b810181811067ffffffffffffffff82111715620001335762000132620000d7565b5b80604052505050565b600062000148620000a8565b905062000156828262000106565b919050565b600067ffffffffffffffff821115620001795762000178620000d7565b5b6200018482620000c6565b9050602081019050919050565b60005b83811015620001b157808201518184015260208101905062000194565b60008484015250505050565b6000620001d4620001ce846200015b565b6200013c565b905082815260208101848484011115620001f357620001f2620000c1565b5b6200020084828562000191565b509392505050565b600082601f83011262000220576200021f620000bc565b5b815162000232848260208601620001bd565b91505092915050565b60008060408385031215620002555762000254620000b2565b5b600083015167ffffffffffffffff811115620002765762000275620000b7565b5b620002848582860162000208565b925050602083015167ffffffffffffffff811115620002a857620002a7620000b7565b5b620002b68582860162000208565b9150509250929050565b600081519050919050565b7f4e487b7100000000000000000000000000000000000000000000000000000000600052602260045260246000fd5b600060028204905060018216806200031357607f821691505b602082108103620003295762000328620002cb565b5b50919050565b60008190508160005260206000209050919050565b60006020601f8301049050919050565b600082821b905092915050565b600060088302620003937fffffffffffffffffffffffffffffffffffffffffffffffffffffffffffffffff8262000354565b6200039f868362000354565b95508019841693508086168417925050509392505050565b6000819050919050565b6000819050919050565b6000620003ec620003e6620003e084620003b7565b620003c1565b620003b7565b9050919050565b6000819050919050565b6200040883620003cb565b620004206200041782620003f3565b84845462000361565b825550505050565b600090565b6200043762000428565b62000444818484620003fd565b505050565b5b818110156200046c57620004606000826200042d565b6001810190506200044a565b5050565b601f821115620004bb5762000485816200032f565b620004908462000344565b81016020851015620004a0578190505b620004b8620004af8562000344565b83018262000449565b50505b505050565b600082821c905092915050565b6000620004e060001984600802620004c0565b1980831691505092915050565b6000620004fb8383620004cd565b9150826002028217905092915050565b6200051682620002c0565b67ffffffffffffffff811115620005325762000531620000d7565b5b6200053e8254620002fa565b6200054b82828562000470565b600060209050601f8311600181146200058357600084156200056e578287015190505b6200057a8582620004ed565b865550620005ea565b601f19841662000593866200032f565b60005b82811015620005bd5784890151825560018201915060208501945060208101905062000596565b86831015620005dd5784890151620005d9601f891682620004cd565b8355505b6001600288020188555050505b505050505050565b613ba680620006026000396000f3fe6080604052600436106101815760003560e01c806374bc8656116100d15780639cb04aef1161008a578063b88d4fde11610064578063b88d4fde146105bf578063c87b56dd146105e8578063e25c4baf14610625578063e985e9c51461066257610181565b80639cb04aef1461051c578063a22cb46514610559578063af296da11461058257610181565b806374bc8656146103f85780637a15f9f7146104355780638da5cb5b14610472578063953865c11461049d57806395d89b41146104c85780639a382f0f146104f357610181565b80631b2ef1ca1161013e5780633ccfd60b116101185780633ccfd60b1461033e57806342842e0e146103555780636352211e1461037e57806370a08231146103bb57610181565b80631b2ef1ca146102bc57806323b872dd146102d857806326704c701461030157610181565b806301ffc9a71461018657806306fdde03146101c3578063081812fc146101ee578063095ea7b31461022b5780630ef7ec741461025457806318160ddd14610291575b600080fd5b34801561019257600080fd5b506101ad60048036038101906101a8919061268d565b61069f565b6040516101ba91906126d5565b60405180910390f35b3480156101cf57600080fd5b506101d8610781565b6040516101e59190612780565b60405180910390f35b3480156101fa57600080fd5b50610215600480360381019061021091906127d8565b610813565b6040516102229190612846565b60405180910390f35b34801561023757600080fd5b50610252600480360381019061024d919061288d565b610859565b005b34801561026057600080fd5b5061027b600480360381019061027691906127d8565b610970565b604051610288919061298b565b60405180910390f35b34801561029d57600080fd5b506102a66109db565b6040516102b391906129bc565b60405180910390f35b6102d660048036038101906102d191906129d7565b6109e1565b005b3480156102e457600080fd5b506102ff60048036038101906102fa9190612a17565b610c93565b005b34801561030d57600080fd5b50610328600480360381019061032391906129d7565b610cf3565b60405161033591906126d5565b60405180910390f35b34801561034a57600080fd5b50610353610d70565b005b34801561036157600080fd5b5061037c60048036038101906103779190612a17565b610e65565b005b34801561038a57600080fd5b506103a560048036038101906103a091906127d8565b610e85565b6040516103b29190612846565b60405180910390f35b3480156103c757600080fd5b506103e260048036038101906103dd9190612a6a565b610f0b565b6040516103ef91906129bc565b60405180910390f35b34801561040457600080fd5b5061041f600480360381019061041a91906127d8565b610fc2565b60405161042c9190612bca565b60405180910390f35b34801561044157600080fd5b5061045c600480360381019061045791906127d8565b6112b6565b604051610469919061298b565b60405180910390f35b34801561047e57600080fd5b5061048761135e565b6040516104949190612846565b60405180910390f35b3480156104a957600080fd5b506104b2611384565b6040516104bf91906129bc565b60405180910390f35b3480156104d457600080fd5b506104dd61138a565b6040516104ea9190612780565b60405180910390f35b3480156104ff57600080fd5b5061051a60048036038101906105159190612d21565b61141c565b005b34801561052857600080fd5b50610543600480360381019061053e9190612e1e565b6115ce565b60405161055091906126d5565b60405180910390f35b34801561056557600080fd5b50610580600480360381019061057b9190612e8a565b6115fd565b005b34801561058e57600080fd5b506105a960048036038101906105a491906129d7565b611613565b6040516105b69190612846565b60405180910390f35b3480156105cb57600080fd5b506105e660048036038101906105e19190612f6b565b611655565b005b3480156105f457600080fd5b5061060f600480360381019061060a91906127d8565b6116b7565b60405161061c9190612780565b60405180910390f35b34801561063157600080fd5b5061064c60048036038101906106479190612fee565b61171f565b60405161065991906129bc565b60405180910390f35b34801561066e57600080fd5b5061068960048036038101906106849190613041565b61175d565b60405161069691906126d5565b60405180910390f35b60007f80ac58cd000000000000000000000000000000000000000000000000000000007bffffffffffffffffffffffffffffffffffffffffffffffffffffffff1916827bffffffffffffffffffffffffffffffffffffffffffffffffffffffff1916148061076a57507f5b5e139f000000000000000000000000000000000000000000000000000000007bffffffffffffffffffffffffffffffffffffffffffffffffffffffff1916827bffffffffffffffffffffffffffffffffffffffffffffffffffffffff1916145b8061077a5750610779826117f1565b5b9050919050565b606060008054610790906130b0565b80601f01602080910402602001604051908101604052809291908181526020018280546107bc906130b0565b80156108095780601f106107de57610100808354040283529160200191610809565b820191906000526020600020905b8154815290600101906020018083116107ec57829003601f168201915b5050505050905090565b600061081e8261185b565b6004600083815260200190815260200160002060009054906101000a900473ffffffffffffffffffffffffffffffffffffffff169050919050565b600061086482610e85565b90508073ffffffffffffffffffffffffffffffffffffffff168373ffffffffffffffffffffffffffffffffffffffff16036108d4576040517f08c379a00000000000000000000000000000000000000000000000000000000081526004016108cb90613153565b60405180910390fd5b8073ffffffffffffffffffffffffffffffffffffffff166108f36118a6565b73ffffffffffffffffffffffffffffffffffffffff16148061092257506109218161091c6118a6565b61175d565b5b610961576040517f08c379a0000000000000000000000000000000000000000000000000000000008152600401610958906131e5565b60405180910390fd5b61096b83836118ae565b505050565b6060600d60008381526020019081526020016000208054806020026020016040519081016040528092919081815260200182805480156109cf57602002820191906000526020600020905b8154815260200190600101908083116109bb575b50505050509050919050565b60085481565b600082036109ee57600080fd5b6007548211156109fd57600080fd5b6009600083815260200190815260200160002060020154341015610a2057600080fd5b600073ffffffffffffffffffffffffffffffffffffffff16600b6000848152602001908152602001600020600083815260200190815260200160002060009054906101000a900473ffffffffffffffffffffffffffffffffffffffff1673ffffffffffffffffffffffffffffffffffffffff1614610a9d57600080fd5b6009600083815260200190815260200160002060040154811115610ac057600080fd5b6001600960008481526020019081526020016000206003016000828254610ae79190613234565b925050819055506001600a600084815260200190815260200160002060003373ffffffffffffffffffffffffffffffffffffffff1673ffffffffffffffffffffffffffffffffffffffff16815260200190815260200160002060006101000a81548160ff02191690831515021790555033600b6000848152602001908152602001600020600083815260200190815260200160002060006101000a81548173ffffffffffffffffffffffffffffffffffffffff021916908373ffffffffffffffffffffffffffffffffffffffff160217905550600c600083815260200190815260200160002060003373ffffffffffffffffffffffffffffffffffffffff1673ffffffffffffffffffffffffffffffffffffffff168152602001908152602001600020819080600181540180825580915050600190039060005260206000200160009091909190915055600d600083815260200190815260200160002081908060018154018082558091505060019003906000526020600020016000909190919091505560086000815480929190610c7e90613268565b9190505550610c8f33600854611967565b5050565b610ca4610c9e6118a6565b82611985565b610ce3576040517f08c379a0000000000000000000000000000000000000000000000000000000008152600401610cda90613322565b60405180910390fd5b610cee838383611a1a565b505050565b60003373ffffffffffffffffffffffffffffffffffffffff16600b6000858152602001908152602001600020600084815260200190815260200160002060009054906101000a900473ffffffffffffffffffffffffffffffffffffffff1673ffffffffffffffffffffffffffffffffffffffff1614905092915050565b600660009054906101000a900473ffffffffffffffffffffffffffffffffffffffff1673ffffffffffffffffffffffffffffffffffffffff163373ffffffffffffffffffffffffffffffffffffffff1614610dca57600080fd5b6000600660009054906101000a900473ffffffffffffffffffffffffffffffffffffffff1673ffffffffffffffffffffffffffffffffffffffff1647604051610e1290613373565b60006040518083038185875af1925050503d8060008114610e4f576040519150601f19603f3d011682016040523d82523d6000602084013e610e54565b606091505b5050905080610e6257600080fd5b50565b610e8083838360405180602001604052806000815250611655565b505050565b600080610e9183611d13565b9050600073ffffffffffffffffffffffffffffffffffffffff168173ffffffffffffffffffffffffffffffffffffffff1603610f02576040517f08c379a0000000000000000000000000000000000000000000000000000000008152600401610ef9906133d4565b60405180910390fd5b80915050919050565b60008073ffffffffffffffffffffffffffffffffffffffff168273ffffffffffffffffffffffffffffffffffffffff1603610f7b576040517f08c379a0000000000000000000000000000000000000000000000000000000008152600401610f7290613466565b60405180910390fd5b600360008373ffffffffffffffffffffffffffffffffffffffff1673ffffffffffffffffffffffffffffffffffffffff168152602001908152602001600020549050919050565b610fca6125bf565b600960008381526020019081526020016000206040518061012001604052908160008201548152602001600182018054611003906130b0565b80601f016020809104026020016040519081016040528092919081815260200182805461102f906130b0565b801561107c5780601f106110515761010080835404028352916020019161107c565b820191906000526020600020905b81548152906001019060200180831161105f57829003601f168201915b505050505081526020016002820154815260200160038201548152602001600482015481526020016005820180546110b3906130b0565b80601f01602080910402602001604051908101604052809291908181526020018280546110df906130b0565b801561112c5780601f106111015761010080835404028352916020019161112c565b820191906000526020600020905b81548152906001019060200180831161110f57829003601f168201915b50505050508152602001600682018054611145906130b0565b80601f0160208091040260200160405190810160405280929190818152602001828054611171906130b0565b80156111be5780601f10611193576101008083540402835291602001916111be565b820191906000526020600020905b8154815290600101906020018083116111a157829003601f168201915b505050505081526020016007820180546111d7906130b0565b80601f0160208091040260200160405190810160405280929190818152602001828054611203906130b0565b80156112505780601f1061122557610100808354040283529160200191611250565b820191906000526020600020905b81548152906001019060200180831161123357829003601f168201915b505050505081526020016008820160009054906101000a900473ffffffffffffffffffffffffffffffffffffffff1673ffffffffffffffffffffffffffffffffffffffff1673ffffffffffffffffffffffffffffffffffffffff16815250509050919050565b6060600c600083815260200190815260200160002060003373ffffffffffffffffffffffffffffffffffffffff1673ffffffffffffffffffffffffffffffffffffffff16815260200190815260200160002080548060200260200160405190810160405280929190818152602001828054801561135257602002820191906000526020600020905b81548152602001906001019080831161133e575b50505050509050919050565b600660009054906101000a900473ffffffffffffffffffffffffffffffffffffffff1681565b60075481565b606060018054611399906130b0565b80601f01602080910402602001604051908101604052809291908181526020018280546113c5906130b0565b80156114125780601f106113e757610100808354040283529160200191611412565b820191906000526020600020905b8154815290600101906020018083116113f557829003601f168201915b5050505050905090565b600660009054906101000a900473ffffffffffffffffffffffffffffffffffffffff1673ffffffffffffffffffffffffffffffffffffffff163373ffffffffffffffffffffffffffffffffffffffff161461147657600080fd5b6007600081548092919061148990613268565b919050555060405180610120016040528060075481526020018781526020018681526020018581526020018581526020018481526020018381526020018281526020013373ffffffffffffffffffffffffffffffffffffffff1681525060096000600754815260200190815260200160002060008201518160000155602082015181600101908161151a9190613632565b5060408201518160020155606082015181600301556080820151816004015560a082015181600501908161154e9190613632565b5060c08201518160060190816115649190613632565b5060e082015181600701908161157a9190613632565b506101008201518160080160006101000a81548173ffffffffffffffffffffffffffffffffffffffff021916908373ffffffffffffffffffffffffffffffffffffffff160217905550905050505050505050565b600a6020528160005260406000206020528060005260406000206000915091509054906101000a900460ff1681565b61160f6116086118a6565b8383611d50565b5050565b600b6020528160005260406000206020528060005260406000206000915091509054906101000a900473ffffffffffffffffffffffffffffffffffffffff1681565b6116666116606118a6565b83611985565b6116a5576040517f08c379a000000000000000000000000000000000000000000000000000000000815260040161169c90613322565b60405180910390fd5b6116b184848484611ebc565b50505050565b60606116c28261185b565b60006116cc611f18565b905060008151116116ec5760405180602001604052806000815250611717565b806116f684611f2f565b604051602001611707929190613740565b6040516020818303038152906040525b915050919050565b600c602052826000526040600020602052816000526040600020818154811061174757600080fd5b9060005260206000200160009250925050505481565b6000600560008473ffffffffffffffffffffffffffffffffffffffff1673ffffffffffffffffffffffffffffffffffffffff16815260200190815260200160002060008373ffffffffffffffffffffffffffffffffffffffff1673ffffffffffffffffffffffffffffffffffffffff16815260200190815260200160002060009054906101000a900460ff16905092915050565b60007f01ffc9a7000000000000000000000000000000000000000000000000000000007bffffffffffffffffffffffffffffffffffffffffffffffffffffffff1916827bffffffffffffffffffffffffffffffffffffffffffffffffffffffff1916149050919050565b61186481611ffd565b6118a3576040517f08c379a000000000000000000000000000000000000000000000000000000000815260040161189a906133d4565b60405180910390fd5b50565b600033905090565b816004600083815260200190815260200160002060006101000a81548173ffffffffffffffffffffffffffffffffffffffff021916908373ffffffffffffffffffffffffffffffffffffffff160217905550808273ffffffffffffffffffffffffffffffffffffffff1661192183610e85565b73ffffffffffffffffffffffffffffffffffffffff167f8c5be1e5ebec7d5bd14f71427d1e84f3dd0314c0f7b2291e5b200ac8c7c3b92560405160405180910390a45050565b61198182826040518060200160405280600081525061203e565b5050565b60008061199183610e85565b90508073ffffffffffffffffffffffffffffffffffffffff168473ffffffffffffffffffffffffffffffffffffffff1614806119d357506119d2818561175d565b5b80611a1157508373ffffffffffffffffffffffffffffffffffffffff166119f984610813565b73ffffffffffffffffffffffffffffffffffffffff16145b91505092915050565b8273ffffffffffffffffffffffffffffffffffffffff16611a3a82610e85565b73ffffffffffffffffffffffffffffffffffffffff1614611a90576040517f08c379a0000000000000000000000000000000000000000000000000000000008152600401611a87906137d6565b60405180910390fd5b600073ffffffffffffffffffffffffffffffffffffffff168273ffffffffffffffffffffffffffffffffffffffff1603611aff576040517f08c379a0000000000000000000000000000000000000000000000000000000008152600401611af690613868565b60405180910390fd5b611b0c8383836001612099565b8273ffffffffffffffffffffffffffffffffffffffff16611b2c82610e85565b73ffffffffffffffffffffffffffffffffffffffff1614611b82576040517f08c379a0000000000000000000000000000000000000000000000000000000008152600401611b79906137d6565b60405180910390fd5b6004600082815260200190815260200160002060006101000a81549073ffffffffffffffffffffffffffffffffffffffff02191690556001600360008573ffffffffffffffffffffffffffffffffffffffff1673ffffffffffffffffffffffffffffffffffffffff168152602001908152602001600020600082825403925050819055506001600360008473ffffffffffffffffffffffffffffffffffffffff1673ffffffffffffffffffffffffffffffffffffffff16815260200190815260200160002060008282540192505081905550816002600083815260200190815260200160002060006101000a81548173ffffffffffffffffffffffffffffffffffffffff021916908373ffffffffffffffffffffffffffffffffffffffff160217905550808273ffffffffffffffffffffffffffffffffffffffff168473ffffffffffffffffffffffffffffffffffffffff167fddf252ad1be2c89b69c2b068fc378daa952ba7f163c4a11628f55a4df523b3ef60405160405180910390a4611d0e838383600161209f565b505050565b60006002600083815260200190815260200160002060009054906101000a900473ffffffffffffffffffffffffffffffffffffffff169050919050565b8173ffffffffffffffffffffffffffffffffffffffff168373ffffffffffffffffffffffffffffffffffffffff1603611dbe576040517f08c379a0000000000000000000000000000000000000000000000000000000008152600401611db5906138d4565b60405180910390fd5b80600560008573ffffffffffffffffffffffffffffffffffffffff1673ffffffffffffffffffffffffffffffffffffffff16815260200190815260200160002060008473ffffffffffffffffffffffffffffffffffffffff1673ffffffffffffffffffffffffffffffffffffffff16815260200190815260200160002060006101000a81548160ff0219169083151502179055508173ffffffffffffffffffffffffffffffffffffffff168373ffffffffffffffffffffffffffffffffffffffff167f17307eab39ab6107e8899845ad3d59bd9653f200f220920489ca2b5937696c3183604051611eaf91906126d5565b60405180910390a3505050565b611ec7848484611a1a565b611ed3848484846120a5565b611f12576040517f08c379a0000000000000000000000000000000000000000000000000000000008152600401611f0990613966565b60405180910390fd5b50505050565b606060405180602001604052806000815250905090565b606060006001611f3e8461222c565b01905060008167ffffffffffffffff811115611f5d57611f5c612bf6565b5b6040519080825280601f01601f191660200182016040528015611f8f5781602001600182028036833780820191505090505b509050600082602001820190505b600115611ff2578080600190039150507f3031323334353637383961626364656600000000000000000000000000000000600a86061a8153600a8581611fe657611fe5613986565b5b04945060008503611f9d575b819350505050919050565b60008073ffffffffffffffffffffffffffffffffffffffff1661201f83611d13565b73ffffffffffffffffffffffffffffffffffffffff1614159050919050565b612048838361237f565b61205560008484846120a5565b612094576040517f08c379a000000000000000000000000000000000000000000000000000000000815260040161208b90613966565b60405180910390fd5b505050565b50505050565b50505050565b60006120c68473ffffffffffffffffffffffffffffffffffffffff1661259c565b1561221f578373ffffffffffffffffffffffffffffffffffffffff1663150b7a026120ef6118a6565b8786866040518563ffffffff1660e01b81526004016121119493929190613a0a565b6020604051808303816000875af192505050801561214d57506040513d601f19601f8201168201806040525081019061214a9190613a6b565b60015b6121cf573d806000811461217d576040519150601f19603f3d011682016040523d82523d6000602084013e612182565b606091505b5060008151036121c7576040517f08c379a00000000000000000000000000000000000000000000000000000000081526004016121be90613966565b60405180910390fd5b805181602001fd5b63150b7a0260e01b7bffffffffffffffffffffffffffffffffffffffffffffffffffffffff1916817bffffffffffffffffffffffffffffffffffffffffffffffffffffffff191614915050612224565b600190505b949350505050565b600080600090507a184f03e93ff9f4daa797ed6e38ed64bf6a1f010000000000000000831061228a577a184f03e93ff9f4daa797ed6e38ed64bf6a1f01000000000000000083816122805761227f613986565b5b0492506040810190505b6d04ee2d6d415b85acef810000000083106122c7576d04ee2d6d415b85acef810000000083816122bd576122bc613986565b5b0492506020810190505b662386f26fc1000083106122f657662386f26fc1000083816122ec576122eb613986565b5b0492506010810190505b6305f5e100831061231f576305f5e100838161231557612314613986565b5b0492506008810190505b612710831061234457612710838161233a57612339613986565b5b0492506004810190505b60648310612367576064838161235d5761235c613986565b5b0492506002810190505b600a8310612376576001810190505b80915050919050565b600073ffffffffffffffffffffffffffffffffffffffff168273ffffffffffffffffffffffffffffffffffffffff16036123ee576040517f08c379a00000000000000000000000000000000000000000000000000000000081526004016123e590613ae4565b60405180910390fd5b6123f781611ffd565b15612437576040517f08c379a000000000000000000000000000000000000000000000000000000000815260040161242e90613b50565b60405180910390fd5b612445600083836001612099565b61244e81611ffd565b1561248e576040517f08c379a000000000000000000000000000000000000000000000000000000000815260040161248590613b50565b60405180910390fd5b6001600360008473ffffffffffffffffffffffffffffffffffffffff1673ffffffffffffffffffffffffffffffffffffffff16815260200190815260200160002060008282540192505081905550816002600083815260200190815260200160002060006101000a81548173ffffffffffffffffffffffffffffffffffffffff021916908373ffffffffffffffffffffffffffffffffffffffff160217905550808273ffffffffffffffffffffffffffffffffffffffff16600073ffffffffffffffffffffffffffffffffffffffff167fddf252ad1be2c89b69c2b068fc378daa952ba7f163c4a11628f55a4df523b3ef60405160405180910390a461259860008383600161209f565b5050565b6000808273ffffffffffffffffffffffffffffffffffffffff163b119050919050565b6040518061012001604052806000815260200160608152602001600081526020016000815260200160008152602001606081526020016060815260200160608152602001600073ffffffffffffffffffffffffffffffffffffffff1681525090565b6000604051905090565b600080fd5b600080fd5b60007fffffffff0000000000000000000000000000000000000000000000000000000082169050919050565b61266a81612635565b811461267557600080fd5b50565b60008135905061268781612661565b92915050565b6000602082840312156126a3576126a261262b565b5b60006126b184828501612678565b91505092915050565b60008115159050919050565b6126cf816126ba565b82525050565b60006020820190506126ea60008301846126c6565b92915050565b600081519050919050565b600082825260208201905092915050565b60005b8381101561272a57808201518184015260208101905061270f565b60008484015250505050565b6000601f19601f8301169050919050565b6000612752826126f0565b61275c81856126fb565b935061276c81856020860161270c565b61277581612736565b840191505092915050565b6000602082019050818103600083015261279a8184612747565b905092915050565b6000819050919050565b6127b5816127a2565b81146127c057600080fd5b50565b6000813590506127d2816127ac565b92915050565b6000602082840312156127ee576127ed61262b565b5b60006127fc848285016127c3565b91505092915050565b600073ffffffffffffffffffffffffffffffffffffffff82169050919050565b600061283082612805565b9050919050565b61284081612825565b82525050565b600060208201905061285b6000830184612837565b92915050565b61286a81612825565b811461287557600080fd5b50565b60008135905061288781612861565b92915050565b600080604083850312156128a4576128a361262b565b5b60006128b285828601612878565b92505060206128c3858286016127c3565b9150509250929050565b600081519050919050565b600082825260208201905092915050565b6000819050602082019050919050565b612902816127a2565b82525050565b600061291483836128f9565b60208301905092915050565b6000602082019050919050565b6000612938826128cd565b61294281856128d8565b935061294d836128e9565b8060005b8381101561297e5781516129658882612908565b975061297083612920565b925050600181019050612951565b5085935050505092915050565b600060208201905081810360008301526129a5818461292d565b905092915050565b6129b6816127a2565b82525050565b60006020820190506129d160008301846129ad565b92915050565b600080604083850312156129ee576129ed61262b565b5b60006129fc858286016127c3565b9250506020612a0d858286016127c3565b9150509250929050565b600080600060608486031215612a3057612a2f61262b565b5b6000612a3e86828701612878565b9350506020612a4f86828701612878565b9250506040612a60868287016127c3565b9150509250925092565b600060208284031215612a8057612a7f61262b565b5b6000612a8e84828501612878565b91505092915050565b600082825260208201905092915050565b6000612ab3826126f0565b612abd8185612a97565b9350612acd81856020860161270c565b612ad681612736565b840191505092915050565b612aea81612825565b82525050565b600061012083016000830151612b0960008601826128f9565b5060208301518482036020860152612b218282612aa8565b9150506040830151612b3660408601826128f9565b506060830151612b4960608601826128f9565b506080830151612b5c60808601826128f9565b5060a083015184820360a0860152612b748282612aa8565b91505060c083015184820360c0860152612b8e8282612aa8565b91505060e083015184820360e0860152612ba88282612aa8565b915050610100830151612bbf610100860182612ae1565b508091505092915050565b60006020820190508181036000830152612be48184612af0565b905092915050565b600080fd5b600080fd5b7f4e487b7100000000000000000000000000000000000000000000000000000000600052604160045260246000fd5b612c2e82612736565b810181811067ffffffffffffffff82111715612c4d57612c4c612bf6565b5b80604052505050565b6000612c60612621565b9050612c6c8282612c25565b919050565b600067ffffffffffffffff821115612c8c57612c8b612bf6565b5b612c9582612736565b9050602081019050919050565b82818337600083830152505050565b6000612cc4612cbf84612c71565b612c56565b905082815260208101848484011115612ce057612cdf612bf1565b5b612ceb848285612ca2565b509392505050565b600082601f830112612d0857612d07612bec565b5b8135612d18848260208601612cb1565b91505092915050565b60008060008060008060c08789031215612d3e57612d3d61262b565b5b600087013567ffffffffffffffff811115612d5c57612d5b612630565b5b612d6889828a01612cf3565b9650506020612d7989828a016127c3565b9550506040612d8a89828a016127c3565b945050606087013567ffffffffffffffff811115612dab57612daa612630565b5b612db789828a01612cf3565b935050608087013567ffffffffffffffff811115612dd857612dd7612630565b5b612de489828a01612cf3565b92505060a087013567ffffffffffffffff811115612e0557612e04612630565b5b612e1189828a01612cf3565b9150509295509295509295565b60008060408385031215612e3557612e3461262b565b5b6000612e43858286016127c3565b9250506020612e5485828601612878565b9150509250929050565b612e67816126ba565b8114612e7257600080fd5b50565b600081359050612e8481612e5e565b92915050565b60008060408385031215612ea157612ea061262b565b5b6000612eaf85828601612878565b9250506020612ec085828601612e75565b9150509250929050565b600067ffffffffffffffff821115612ee557612ee4612bf6565b5b612eee82612736565b9050602081019050919050565b6000612f0e612f0984612eca565b612c56565b905082815260208101848484011115612f2a57612f29612bf1565b5b612f35848285612ca2565b509392505050565b600082601f830112612f5257612f51612bec565b5b8135612f62848260208601612efb565b91505092915050565b60008060008060808587031215612f8557612f8461262b565b5b6000612f9387828801612878565b9450506020612fa487828801612878565b9350506040612fb5878288016127c3565b925050606085013567ffffffffffffffff811115612fd657612fd5612630565b5b612fe287828801612f3d565b91505092959194509250565b6000806000606084860312156130075761300661262b565b5b6000613015868287016127c3565b935050602061302686828701612878565b9250506040613037868287016127c3565b9150509250925092565b600080604083850312156130585761305761262b565b5b600061306685828601612878565b925050602061307785828601612878565b9150509250929050565b7f4e487b7100000000000000000000000000000000000000000000000000000000600052602260045260246000fd5b600060028204905060018216806130c857607f821691505b6020821081036130db576130da613081565b5b50919050565b7f4552433732313a20617070726f76616c20746f2063757272656e74206f776e6560008201527f7200000000000000000000000000000000000000000000000000000000000000602082015250565b600061313d6021836126fb565b9150613148826130e1565b604082019050919050565b6000602082019050818103600083015261316c81613130565b9050919050565b7f4552433732313a20617070726f76652063616c6c6572206973206e6f7420746f60008201527f6b656e206f776e6572206f7220617070726f76656420666f7220616c6c000000602082015250565b60006131cf603d836126fb565b91506131da82613173565b604082019050919050565b600060208201905081810360008301526131fe816131c2565b9050919050565b7f4e487b7100000000000000000000000000000000000000000000000000000000600052601160045260246000fd5b600061323f826127a2565b915061324a836127a2565b925082820390508181111561326257613261613205565b5b92915050565b6000613273826127a2565b91507fffffffffffffffffffffffffffffffffffffffffffffffffffffffffffffffff82036132a5576132a4613205565b5b600182019050919050565b7f4552433732313a2063616c6c6572206973206e6f7420746f6b656e206f776e6560008201527f72206f7220617070726f76656400000000000000000000000000000000000000602082015250565b600061330c602d836126fb565b9150613317826132b0565b604082019050919050565b6000602082019050818103600083015261333b816132ff565b9050919050565b600081905092915050565b50565b600061335d600083613342565b91506133688261334d565b600082019050919050565b600061337e82613350565b9150819050919050565b7f4552433732313a20696e76616c696420746f6b656e2049440000000000000000600082015250565b60006133be6018836126fb565b91506133c982613388565b602082019050919050565b600060208201905081810360008301526133ed816133b1565b9050919050565b7f4552433732313a2061646472657373207a65726f206973206e6f74206120766160008201527f6c6964206f776e65720000000000000000000000000000000000000000000000602082015250565b60006134506029836126fb565b915061345b826133f4565b604082019050919050565b6000602082019050818103600083015261347f81613443565b9050919050565b60008190508160005260206000209050919050565b60006020601f8301049050919050565b600082821b905092915050565b6000600883026134e87fffffffffffffffffffffffffffffffffffffffffffffffffffffffffffffffff826134ab565b6134f286836134ab565b95508019841693508086168417925050509392505050565b6000819050919050565b600061352f61352a613525846127a2565b61350a565b6127a2565b9050919050565b6000819050919050565b61354983613514565b61355d61355582613536565b8484546134b8565b825550505050565b600090565b613572613565565b61357d818484613540565b505050565b5b818110156135a15761359660008261356a565b600181019050613583565b5050565b601f8211156135e6576135b781613486565b6135c08461349b565b810160208510156135cf578190505b6135e36135db8561349b565b830182613582565b50505b505050565b600082821c905092915050565b6000613609600019846008026135eb565b1980831691505092915050565b600061362283836135f8565b9150826002028217905092915050565b61363b826126f0565b67ffffffffffffffff81111561365457613653612bf6565b5b61365e82546130b0565b6136698282856135a5565b600060209050601f83116001811461369c576000841561368a578287015190505b6136948582613616565b8655506136fc565b601f1984166136aa86613486565b60005b828110156136d2578489015182556001820191506020850194506020810190506136ad565b868310156136ef57848901516136eb601f8916826135f8565b8355505b6001600288020188555050505b505050505050565b600081905092915050565b600061371a826126f0565b6137248185613704565b935061373481856020860161270c565b80840191505092915050565b600061374c828561370f565b9150613758828461370f565b91508190509392505050565b7f4552433732313a207472616e736665722066726f6d20696e636f72726563742060008201527f6f776e6572000000000000000000000000000000000000000000000000000000602082015250565b60006137c06025836126fb565b91506137cb82613764565b604082019050919050565b600060208201905081810360008301526137ef816137b3565b9050919050565b7f4552433732313a207472616e7366657220746f20746865207a65726f2061646460008201527f7265737300000000000000000000000000000000000000000000000000000000602082015250565b60006138526024836126fb565b915061385d826137f6565b604082019050919050565b6000602082019050818103600083015261388181613845565b9050919050565b7f4552433732313a20617070726f766520746f2063616c6c657200000000000000600082015250565b60006138be6019836126fb565b91506138c982613888565b602082019050919050565b600060208201905081810360008301526138ed816138b1565b9050919050565b7f4552433732313a207472616e7366657220746f206e6f6e20455243373231526560008201527f63656976657220696d706c656d656e7465720000000000000000000000000000602082015250565b60006139506032836126fb565b915061395b826138f4565b604082019050919050565b6000602082019050818103600083015261397f81613943565b9050919050565b7f4e487b7100000000000000000000000000000000000000000000000000000000600052601260045260246000fd5b600081519050919050565b600082825260208201905092915050565b60006139dc826139b5565b6139e681856139c0565b93506139f681856020860161270c565b6139ff81612736565b840191505092915050565b6000608082019050613a1f6000830187612837565b613a2c6020830186612837565b613a3960408301856129ad565b8181036060830152613a4b81846139d1565b905095945050505050565b600081519050613a6581612661565b92915050565b600060208284031215613a8157613a8061262b565b5b6000613a8f84828501613a56565b91505092915050565b7f4552433732313a206d696e7420746f20746865207a65726f2061646472657373600082015250565b6000613ace6020836126fb565b9150613ad982613a98565b602082019050919050565b60006020820190508181036000830152613afd81613ac1565b9050919050565b7f4552433732313a20746f6b656e20616c7265616479206d696e74656400000000600082015250565b6000613b3a601c836126fb565b9150613b4582613b04565b602082019050919050565b60006020820190508181036000830152613b6981613b2d565b905091905056fea2646970667358221220e170332eed7d94f988c34e41741d54e80459931b6fc9af9a0a0daf73aa2c0df764736f6c63430008110033",
  "linkReferences": {},
  "deployedLinkReferences": {}
}